:100000000C9463000C948B000C948B000C948B006C
:100010000C948B000C948B000C948B000C948B0034
:100020000C948B000C948B000C948B000C948B0024
:100030000C948B000C948B000C948B000C948B0014
:100040000C9468040C948B000C9449010C94970157
:100050000C948B000C948B000C948B000C948B00F4
:100060000C948B000C948B000000000024002700EF
:100070002A0000000000250028002B0000000000DE
:1000800023002600290004040404040404040202DA
:100090000202020203030303030301020408102007
:1000A0004080010204081020010204081020000012
:1000B0000007000201000003040600000000000029
:1000C00000008D00030311241FBECFEFD8E0DEBF78
:1000D000CDBF11E0A0E0B1E0E2ECFCE002C0059091
:1000E0000D92AA31B107D9F711E0AAE1B1E001C040
:1000F0001D92A43DB107E1F710E0C6ECD0E004C0CA
:100100002297FE010E945B06C23CD107C9F70E94FC
:1001100059030C945F060C9400008CE191E06BE0B5
:100120004DE02CE00E942901089580911A019091E0
:100130001B01019690931B0180931A0189EA91E0BB
:1001400060E071E00E94650460911A0170911B01EA
:1001500089EA91E04AE050E00E94520489EA91E085
:1001600066E071E00E9465048CE191E060911A0103
:100170000E94F80080911A0190911B01409724F091
:1001800010921B0110921A0168EE73E080E090E07B
:100190000E94D604089589EA91E040E052EC61E0C3
:1001A00070E00E94D2018EE19CE090931D0180934B
:1001B0001C0108950F931F938C01FC01838160E063
:1001C0000E94A305F80121818281648141E00E949F
:1001D000D605F8018281648141E020810E94D60524
:1001E000F801838161E00E94A3051F910F9108959A
:1001F000FC0120813181C901062E02C096958795A8
:100200000A94E2F780FD10C081E090E0A0E0B0E049
:1002100004C0880F991FAA1FBB1F6A95D2F7282B0D
:10022000392B3183208311C081E090E0A0E0B0E061
:1002300004C0880F991FAA1FBB1F6A95D2F780952B
:1002400090958223932391838083CF010E94DA00CB
:100250000895DF92EF92FF920F931F938C01F62E79
:10026000E42ED22E862F61E00E9437058E2D61E0AC
:100270000E9437058D2D61E00E943705F801F2825A
:10028000E382D4821F910F91FF90EF90DF90089549
:1002900008951F920F920FB60F9211242F933F9340
:1002A0004F938F939F93EF93FF938091C00082FDB4
:1002B0001DC04091C60020916101309162012F5F05
:1002C0003F4F2F7330708091630190916401281724
:1002D000390771F0E0916101F0916201EF5DFE4F2D
:1002E0004083309362012093610102C08091C60077
:1002F000FF91EF919F918F914F913F912F910F908F
:100300000FBE0F901F901895E091B501F091B601C6
:10031000E05CFF4F8191919120813181821B930B91
:100320008F739070892B11F00E94480108951F92DD
:100330000F920FB60F9211242F933F938F939F9399
:10034000EF93FF932091A5013091A6018091A70121
:100350009091A8012817390731F48091C1008F7D51
:100360008093C10014C0E091A701F091A801EB595E
:10037000FE4F20818091A7019091A80101968F7373
:1003800090709093A8018093A7012093C600FF91DD
:10039000EF919F918F913F912F910F900FBE0F90F2
:1003A0001F901895AF92BF92DF92EF92FF920F933A
:1003B0001F93CF93DF93EC017A018B01DD24403052
:1003C00081EE580780E0680780E0780711F0DD24AF
:1003D000D39491E0A92EB12CEC89FD89DD2069F040
:1003E000C50108A002C0880F991F0A94E2F7808314
:1003F00060E079E08DE390E005C0108260E874E889
:100400008EE190E0A80197010E943706215030400C
:1004100040405040569547953795279580E12030CC
:10042000380720F0DD2011F0DD24D6CFE889F989E6
:100430003083EA89FB89208319A2EE89FF894081F4
:1004400021E030E0C9010C8C02C0880F991F0A948A
:10045000E2F7482B4083EE89FF894081C9010D8C6A
:1004600002C0880F991F0A94E2F7482B4083EE8957
:10047000FF894081C9010E8C02C0880F991F0A9420
:10048000E2F7482B4083EE89FF8980810F8C02C000
:10049000220F331F0A94E2F7209528232083DF914F
:1004A000CF911F910F91FF90EF90DF90BF90AF9091
:1004B0000895DC011C96ED91FC911D97E05CFF4FC7
:1004C0002191319180819181281B390B2F733070DC
:1004D000C9010895DC011C96ED91FC911D97E05C2B
:1004E000FF4F20813181E054F040DF01AE5BBF4F10
:1004F0008D919C9111972817390719F42FEF3FEF31
:1005000007C08D919C91E80FF91F8081282F30E062
:10051000C9010895DC011C96ED91FC911D97E05CEA
:10052000FF4F20813181E054F040DF01AE5BBF4FCF
:100530008D919C9111972817390719F42FEF3FEFF0
:1005400010C08D919C911197E80FF91F20818D911A
:100550009C91119701968F73907011969C938E9336
:1005600030E0C9010895DC0191968C919197882320
:1005700039F05496ED91FC915597808186FFF9CF23
:1005800091961C920895CF93DF93EC01EE85FF8541
:10059000E05CFF4F20813181E054F0402F5F3F4FFE
:1005A0002F733070DF01AE5BBF4F8D919C9111971F
:1005B00028173907D1F3E05CFF4F80819181E05427
:1005C000F040E80FF91F6083EE85FF85E05CFF4F88
:1005D00031832083EE89FF89208181E090E00F8CB8
:1005E00002C0880F991F0A94E2F7282B208381E02C
:1005F00089A3EC89FD8980818064808381E090E01B
:10060000DF91CF9108951092AC011092AB0188EE6A
:1006100093E0A0E0B0E08093AD019093AE01A09391
:10062000AF01B093B0018DE091E09093AA01809367
:10063000A90181E291E09093B6018093B50185E62E
:1006400091E09093B8018093B70185EC90E090938E
:10065000BA018093B90184EC90E09093BC0180933F
:10066000BB0180EC90E09093BE018093BD0181ECD2
:1006700090E09093C0018093BF0182EC90E0909352
:10068000C2018093C10186EC90E09093C4018093F5
:10069000C30184E08093C50183E08093C60187E0B5
:1006A0008093C70185E08093C80181E08093C901F0
:1006B0000895CF93DF930E94FC040E94CB00C4E80E
:1006C000D1E00E9495002097E1F30E948401F9CFC8
:1006D000CF92DF92EF92FF920F931F93CF93DF930E
:1006E0007C016B018A01C0E0D0E00FC0D6016D91A2
:1006F0006D01D701ED91FC910190F081E02DC701D2
:100700000995C80FD91F015010400115110571F747
:10071000CE01DF91CF911F910F91FF90EF90DF906D
:10072000CF900895CF93DF93EC016115710519F413
:1007300020E030E00FC0DB010D900020E9F71197B9
:10074000A61BB70BE881F9810280F381E02DAD0192
:1007500009959C01C901DF91CF9108954F925F9255
:100760007F928F929F92AF92BF92CF92DF92EF9241
:10077000FF920F931F93DF93CF93CDB7DEB7A1976F
:100780000FB6F894DEBF0FBECDBF2C01742ECB0187
:10079000223008F42AE019A231E2C32ED12CCC0E6B
:1007A000DD1E822E9924AA24BB24672D752FA50156
:1007B00094010E94370679018A01C801B701A50199
:1007C00094010E941806472D461B0894C108D108C1
:1007D0004A3014F4405D01C0495CF6014083E114E5
:1007E000F1040105110521F07E2C5F2DC801DDCF3C
:1007F000C201B6010E949203A1960FB6F894DEBF23
:100800000FBECDBFCF91DF911F910F91FF90EF9061
:10081000DF90CF90BF90AF909F908F907F905F9030
:100820004F900895CF92DF92EF92FF920F931F9314
:10083000CF93DF93EC016A017B012115310541F46F
:10084000E881F9810190F081E02D642F09951FC0A6
:100850002A303105D1F477FF17C0E881F981019082
:10086000F081E02D6DE209958C0144275527BA01EE
:100870004C195D096E097F09CE012AE00E94AE0382
:100880009801280F391F04C02AE00E94AE039C0182
:10089000C901DF91CF911F910F91FF90EF90DF90F1
:1008A000CF900895EF92FF920F931F937B019A01CF
:1008B0000027F7FC0095102FB801A7010E94120431
:1008C0001F910F91FF90EF9008950E949203089559
:1008D0001F920F920FB60F9211242F933F938F9375
:1008E0009F93AF93BF938091CF019091D001A0913E
:1008F000D101B091D2013091D3010196A11DB11D5A
:10090000232F2D5F2D3720F02D570196A11DB11DEE
:100910002093D3018093CF019093D001A093D10174
:10092000B093D2018091CB019091CC01A091CD01E7
:10093000B091CE010196A11DB11D8093CB01909382
:10094000CC01A093CD01B093CE01BF91AF919F9107
:100950008F913F912F910F900FBE0F901F90189580
:100960009FB7F8942091CB013091CC014091CD01FB
:100970005091CE0186B5A89B06C08F3F21F02F5F16
:100980003F4F4F4F5F4F9FBF542F432F322F222790
:10099000280F311D411D511D82E0220F331F441FBE
:1009A000551F8A95D1F7B901CA010895EF92FF92B8
:1009B0000F931F93CF93DF937B018C010E94B004B0
:1009C000EB010EC00E94B0046C1B7D0B685E73408F
:1009D000C8F30894E108F10801091109C851DC4F76
:1009E000E114F1040105110569F7DF91CF911F9121
:1009F0000F91FF90EF900895789484B5826084BD44
:100A000084B5816084BD85B5826085BD85B5816012
:100A100085BDEEE6F0E0808181608083E1E8F0E072
:100A20001082808182608083808181608083E0E8A1
:100A3000F0E0808181608083E1EBF0E08081846080
:100A40008083E0EBF0E0808181608083EAE7F0E082
:100A500080818460808380818260808380818160E6
:100A600080838081806880831092C1000895CF9335
:100A7000DF93482F50E0CA0186569F4FFC01349106
:100A80004A575F4FFA018491882369F190E0880FFB
:100A9000991FFC01E859FF4FA591B491FC01EE5854
:100AA000FF4FC591D491662351F42FB7F8948C91E0
:100AB000932F909589238C93888189230BC0623072
:100AC00061F42FB7F8948C91932F909589238C9390
:100AD0008881832B88832FBF06C09FB7F8948C91A1
:100AE000832B8C939FBFDF91CF910895833071F05A
:100AF000843028F48130A1F0823021F514C0863092
:100B0000B1F08730D1F08430E9F404C080918000E6
:100B10008F7703C0809180008F7D8093800008953F
:100B200084B58F7702C084B58F7D84BD0895809190
:100B3000B0008F778093B00008958091B0008F7DD2
:100B40008093B0000895FF920F931F93F62E482FC5
:100B500050E0CA0182559F4FFC012491CA0186567C
:100B60009F4FFC0114914A575F4FFA0104910023F3
:100B7000C9F0222319F0822F0E947605E02FF0E0C1
:100B8000EE0FFF1FEE58FF4FA591B4919FB7F89459
:100B9000FF2021F48C911095812302C08C91812B30
:100BA0008C939FBF1F910F91FF900895BF92CF929A
:100BB000DF92EF92FF920F931F93CF93DF93E82E74
:100BC000F62EB42EC7E0D0E0022F10E087E0C82E4A
:100BD000D12CBB2059F4B6016C1B7D0BC80102C09F
:100BE000959587956A95E2F7BC0107C0B8010C2E70
:100BF00002C0759567950A94E2F761708E2D0E9488
:100C0000A3058F2D61E00E94A3058F2D60E00E9457
:100C1000A30521979FEFCF3FD907D9F6DF91CF9159
:100C20001F910F91FF90EF90DF90CF90BF900895AC
:100C3000629FD001739FF001829FE00DF11D649FC0
:100C4000E00DF11D929FF00D839FF00D749FF00D4C
:100C5000659FF00D9927729FB00DE11DF91F639FED
:100C6000B00DE11DF91FBD01CF0111240895A1E2CE
:100C70001A2EAA1BBB1BFD010DC0AA1FBB1FEE1F16
:100C8000FF1FA217B307E407F50720F0A21BB30B61
:100C9000E40BF50B661F771F881F991F1A9469F7DD
:100CA00060957095809590959B01AC01BD01CF0139
:100CB0000895EE0FFF1F0590F491E02D0994F8942C
:020CC000FFCF64
:100CC2007374657020003A200000000000C30268BF
:0A0CD2000359028A026A02B302000D
:00000001FF
