:100000000C9463000C94D9040C9406050C948B009A
:100010000C948B000C948B000C948B000C949C0023
:100020000C948B000C948B000C948B000C948B0024
:100030000C948B000C948B000C948B000C948B0014
:100040000C9433050C948B000C9441020C948F0299
:100050000C948B000C948B000C948B000C948B00F4
:100060000C948B000C948B000000000024002700EF
:100070002A0000000000250028002B0000000000DE
:1000800023002600290004040404040404040202DA
:100090000202020203030303030301020408102007
:1000A0004080010204081020010204081020000012
:1000B0000007000201000003040600000000000029
:1000C0000000EB01740311241FBECFEFD8E0DEBFA8
:1000D000CDBF11E0A0E0B1E0E8EBFEE002C005908A
:1000E0000D92AC31B107D9F712E0ACE1B1E001C03B
:1000F0001D92AB3AB107E1F710E0C6ECD0E004C0C6
:100100002297FE010E945607C23CD107C9F70E9400
:10011000CA030C945A070C9400000895089508959A
:1001200080911F01882329F08091EC0180FD02C09D
:100130002D9808952D9A08951F920F920FB60F9241
:1001400011242F933F934F935F936F937F938F93DC
:100150009F93AF93BF93EF93FF9380911C010E94F5
:10016000A1069C018091200190912101A091220182
:10017000B09123010196A11DB11D809320019093A0
:100180002101A0932201B09323018091EC018436D8
:1001900030F084E090E090931E0180931D018091E7
:1001A0001D0190911E018230910509F440C08330F9
:1001B000910584F08330910519F1049771F4232B94
:1001C00061F41092200110922101109222011092EC
:1001D000230103C0019709F451C00E949000FF91D0
:1001E000EF91BF91AF919F918F917F916F915F91AF
:1001F0004F913F912F910F900FBE0F901F90189528
:10020000232B09F44EC08091200190912101A091EF
:100210002201B091230185369105A105B105E8F2CF
:1002200084E090E090931E0180931D01D6CF213091
:10023000310599F62091EC01E22FF0E08091200148
:1002400090912101A0912201B0912301EE0FFF1F97
:10025000EC5DFE4F918380832F5F2093EC01109221
:10026000200110922101109222011092230183E0BB
:1002700090E090931E0180931D01AFCF232B09F0D6
:10028000ACCF8091200190912101A0912201B091E9
:10029000230184369105A105B10508F492CF10928F
:1002A000EC012091EC01E22FF0E08091200190918F
:1002B0002101A0912201B0912301EE0FFF1FEC5DFF
:1002C000FE4F918380832F5F2093EC0110922001D9
:1002D00010922101109222011092230182E090E0FD
:1002E00090931E0180931D0178CF0F931F938C0173
:1002F000FC01838160E00E946E06F8012181828109
:10030000648141E00E94D106F8018281648141E06C
:1003100020810E94D106F801838161E00E946E066F
:100320001F910F910895FC0120813181C901062E92
:1003300002C0969587950A94E2F780FF15C081E088
:1003400090E0A0E0B0E004C0880F991FAA1FBB1F77
:100350006A95D2F780959095822393239183808329
:10036000CF010E947501089581E090E0A0E0B0E027
:1003700004C0880F991FAA1FBB1F6A95D2F7282BAC
:10038000392B31832083CF010E9475010895DF92BC
:10039000EF92FF920F931F938C01F62EE42ED22E34
:1003A000862F61E00E9402068E2D61E00E94020607
:1003B0008D2D61E00E940206F801F282E382D48270
:1003C00011821082C8010E9475011F910F91FF9048
:1003D000EF90DF9008958DEE91E06BE04DE02CE022
:1003E0000E94C70182EF91E00E948D0008958091E4
:1003F000090190910A018730910541F1019690938E
:100400000A01809309018DEE91E0609109010E943B
:1004100093018CE792E060E071E00E94D604609165
:10042000090170910A018CE792E04AE050E00E94D5
:10043000C3048CE792E066E071E00E94D60462E3B8
:1004400070E080E090E00E94A105089510920A01FA
:1004500010920901D8CF0F931F938BE790E09093F0
:10046000EE018093ED0102EF11E0C80161E00E940E
:100470008E00C80162E00E948F001F910F910895C5
:1004800008951F920F920FB60F9211242F933F934E
:100490004F938F939F93EF93FF938091C00082FDC2
:1004A0001DC04091C60020913402309135022F5F6B
:1004B0003F4F2F733070809136029091370228178A
:1004C000390771F0E0913402F0913502EC50FE4FA3
:1004D0004083309335022093340202C08091C600DD
:1004E000FF91EF919F918F914F913F912F910F909D
:1004F0000FBE0F901F901895E0918802F09189022D
:10050000E05CFF4F8191919120813181821B930B9F
:100510008F739070892B11F00E94400208951F92F2
:100520000F920FB60F9211242F933F938F939F93A7
:10053000EF93FF93209178023091790280917A02B3
:1005400090917B022817390731F48091C1008F7D8B
:100550008093C10014C0E0917A02F0917B02E85CC4
:10056000FD4F208180917A0290917B0201968F73DA
:10057000907090937B0280937A022093C600FF9143
:10058000EF919F918F913F912F910F900FBE0F9000
:100590001F901895DC011C96ED91FC911D97E05C75
:1005A000FF4F2191319180819181281B390B2F734D
:1005B0003070C9010895DC011C96ED91FC911D97E6
:1005C000E05CFF4F20813181E054F040DF01AE5B01
:1005D000BF4F8D919C9111972817390719F42FEF70
:1005E0003FEF07C08D919C91E80FF91F8081282F64
:1005F00030E0C9010895DC011C96ED91FC911D9736
:10060000E05CFF4F20813181E054F040DF01AE5BC0
:10061000BF4F8D919C9111972817390719F42FEF2F
:100620003FEF10C08D919C911197E80FF91F208129
:100630008D919C91119701968F73907011969C9358
:100640008E9330E0C9010895DC0191968C919197C9
:10065000882339F05496ED91FC915597808186FF5F
:10066000F9CF91961C920895CF93DF93EC01EE851C
:10067000FF85E05CFF4F20813181E054F0402F5F27
:100680003F4F2F733070DF01AE5BBF4F8D919C9158
:10069000119728173907D1F3E05CFF4F80819181D2
:1006A000E054F040E80FF91F6083EE85FF85E05CC1
:1006B000FF4F31832083EE89FF89208181E090E024
:1006C0000F8C02C0880F991F0A94E2F7282B208311
:1006D00081E089A3EC89FD8980818064808381E049
:1006E00090E0DF91CF91089510927F0210927E02E8
:1006F00088EE93E0A0E0B0E08093800290938102C6
:10070000A0938202B09383028FE091E090937D02E8
:1007100080937C0284EF91E0909389028093880219
:1007200088E392E090938B0280938A0285EC90E0BC
:1007300090938D0280938C0284EC90E090938F02D2
:1007400080938E0280EC90E09093910280939002CF
:1007500081EC90E0909393028093920282EC90E07F
:10076000909395028093940286EC90E09093970288
:100770008093960284E08093980283E080939902AC
:1007800087E080939A0285E080939B0281E08093CA
:100790009C020895CF93DF930E94C7050E942B020D
:1007A000CCE7D2E00E94F7012097E1F30E947C029F
:1007B000F9CFCF92DF92EF92FF920F931F93CF93D7
:1007C000DF937C016B018A01C0E0D0E00FC0D6014D
:1007D0006D916D01D701ED91FC910190F081E02DBB
:1007E000C7010995C80FD91F015010400115110507
:1007F00071F7CE01DF91CF911F910F91FF90EF9094
:10080000DF90CF900895CF93DF93EC0161157105D0
:1008100019F420E030E00FC0DB010D900020E9F773
:100820001197A61BB70BE881F9810280F381E02DB7
:10083000AD0109959C01C901DF91CF9108954F92B7
:100840005F927F928F929F92AF92BF92CF92DF92F0
:10085000EF92FF920F931F93DF93CF93CDB7DEB745
:10086000A1970FB6F894DEBF0FBECDBF2C01742E3A
:10087000CB01223008F42AE019A231E2C32ED12C98
:10088000CC0EDD1E822E9924AA24BB24672D752F41
:10089000A50194010E94320779018A01C801B701BC
:1008A000A50194010E941307472D461B0894C10817
:1008B000D1084A3014F4405D01C0495CF601408320
:1008C000E114F1040105110521F07E2C5F2DC80112
:1008D000DDCFC201B6010E940304A1960FB6F894C1
:1008E000DEBF0FBECDBFCF91DF911F910F91FF9063
:1008F000EF90DF90CF90BF90AF909F908F907F90C0
:100900005F904F900895CF92DF92EF92FF920F93F6
:100910001F93CF93DF93EC016A017B012115310511
:1009200041F4E881F9810190F081E02D642F09956F
:100930001FC02A303105D1F477FF17C0E881F98153
:100940000190F081E02D6DE209958C014427552737
:10095000BA014C195D096E097F09CE012AE00E9497
:100960001F049801280F391F04C02AE00E941F04A9
:100970009C01C901DF91CF911F910F91FF90EF90E2
:10098000DF90CF900895EF92FF920F931F937B011A
:100990009A010027F7FC0095102FB801A7010E94CB
:1009A00083041F910F91FF90EF9008950E9403041C
:1009B00008951F920F920FB60F9211242F933F9319
:1009C0004F935F936F937F938F939F93AF93BF9357
:1009D000EF93FF9380919E0290919F02892B29F0C3
:1009E000E0919E02F0919F020995FF91EF91BF91D6
:1009F000AF919F918F917F916F915F914F913F91B7
:100A00002F910F900FBE0F901F9018951F920F926D
:100A10000FB60F9211242F933F934F935F936F93D1
:100A20007F938F939F93AF93BF93EF93FF938091A7
:100A3000A0029091A102892B29F0E091A002F091EF
:100A4000A1020995FF91EF91BF91AF919F918F9175
:100A50007F916F915F914F913F912F910F900FBEBA
:100A60000F901F9018951F920F920FB60F9211249E
:100A70002F933F938F939F93AF93BF938091A60241
:100A80009091A702A091A802B091A9023091AA0268
:100A90000196A11DB11D232F2D5F2D3720F02D575D
:100AA0000196A11DB11D2093AA028093A6029093E6
:100AB000A702A093A802B093A9028091A2029091EC
:100AC000A302A091A402B091A5020196A11DB11D9F
:100AD0008093A2029093A302A093A402B093A502D4
:100AE000BF91AF919F918F913F912F910F900FBE2A
:100AF0000F901F9018959FB7F8942091A202309103
:100B0000A3024091A4025091A50286B5A89B06C0FD
:100B10008F3F21F02F5F3F4F4F4F5F4F9FBF542FAD
:100B2000432F322F2227280F311D411D511D82E0F6
:100B3000220F331F441F551F8A95D1F7B901CA01EF
:100B40000895EF92FF920F931F93CF93DF937B0152
:100B50008C010E947B05EB010EC00E947B056C1B83
:100B60007D0B685E7340C8F30894E108F108010941
:100B70001109C851DC4FE114F1040105110569F7B1
:100B8000DF91CF911F910F91FF90EF90089578948E
:100B900084B5826084BD84B5816084BD85B5826082
:100BA00085BD85B5816085BDEEE6F0E08081816020
:100BB0008083E1E8F0E01082808182608083808120
:100BC00081608083E0E8F0E0808181608083E1EBF8
:100BD000F0E0808184608083E0EBF0E080818160E0
:100BE0008083EAE7F0E08081846080838081826096
:100BF000808380818160808380818068808310927F
:100C0000C1000895CF93DF93482F50E0CA01865664
:100C10009F4FFC0134914A575F4FFA01849188231A
:100C200069F190E0880F991FFC01E859FF4FA591E9
:100C3000B491FC01EE58FF4FC591D491662351F455
:100C40002FB7F8948C91932F909589238C9388815A
:100C500089230BC0623061F42FB7F8948C91932FE5
:100C6000909589238C938881832B88832FBF06C01E
:100C70009FB7F8948C91832B8C939FBFDF91CF917A
:100C80000895833071F0843028F48130A1F08230EF
:100C900021F514C08630B1F08730D1F08430E9F40A
:100CA00004C0809180008F7703C0809180008F7D89
:100CB00080938000089584B58F7702C084B58F7DBE
:100CC00084BD08958091B0008F778093B00008951F
:100CD0008091B0008F7D8093B0000895FF920F93B4
:100CE0001F93F62E482F50E0CA0182559F4FFC01FA
:100CF0002491CA0186569F4FFC0114914A575F4FB9
:100D0000FA0104910023C9F0222319F0822F0E94D6
:100D10004106E02FF0E0EE0FFF1FEE58FF4FA591C8
:100D2000B4919FB7F894FF2021F48C911095812302
:100D300002C08C91812B8C939FBF1F910F91FF90CC
:100D400008950F931F93482F50E0CA0182559F4F7B
:100D5000FC012491CA0186569F4FFC0104914A5719
:100D60005F4FFA011491112319F420E030E015C00F
:100D7000222319F0822F0E944106812F90E0880FD4
:100D8000991F84589F4FFC01A591B4918C9120E04C
:100D900030E0802311F021E030E0C9011F910F9174
:100DA0000895BF92CF92DF92EF92FF920F931F931D
:100DB000CF93DF93E82EF62EB42EC7E0D0E0022FBB
:100DC00010E087E0C82ED12CBB2059F4B6016C1B73
:100DD0007D0BC80102C0959587956A95E2F7BC0125
:100DE00007C0B8010C2E02C0759567950A94E2F70A
:100DF00061708E2D0E946E068F2D61E00E946E063E
:100E00008F2D60E00E946E0621979FEFCF3FD9079C
:100E1000D9F6DF91CF911F910F91FF90EF90DF9066
:100E2000CF90BF900895629FD001739FF001829F81
:100E3000E00DF11D649FE00DF11D929FF00D839F69
:100E4000F00D749FF00D659FF00D9927729FB00D06
:100E5000E11DF91F639FB00DE11DF91FBD01CF0119
:100E600011240895A1E21A2EAA1BBB1BFD010DC07F
:100E7000AA1FBB1FEE1FFF1FA217B307E407F5074A
:100E800020F0A21BB30BE40BF50B661F771F881F26
:100E9000991F1A9469F760957095809590959B01BC
:100EA000AC01BD01CF010895EE0FFF1F0590F49135
:080EB000E02D0994F894FFCF36
:100EB8007374657020003A2000FFFF0000000034C2
:0C0EC80003D903CA02FB02DB0224030072
:00000001FF
